:10000000000F0F0E000F0F0D070F0F0D0F0F0F0B2F
:10001000070F0F0B000F0F0B000F0F0D070F0F0D2A
:100020000F070F0D0F0B0F0E0F05070F0F0D080F0A
:100030000F0E0F0F070F0F0F080F0F0F0F0F0F0FE0
:100040000D0F0F010D0F0F010D0F0F0D0D0F0F0FE6
:100050000D0F0F0D0B0F0F01070F0E010F000E0DEF
:100060000F0F0E090F0F0E090F0F0E0F0F0F0D0FB1
:100070000F0F0D0F0F0F030F0F0F0F000F0F0F0FAD
:100080000F0F0F0F0F0F0F0F0F07080F0F09070E9E
:100090000F0E0F01070F0F0B070F0F0F0B0F0F0F97
:1000A0000B0F0F030B0F0F01070F0F0D070F0F0D96
:1000B000070E0F010B0E0F030B0F0F0F0B0F0F0D82
:1000C0000F0F0F0F0F080F0F03070F0F0C0F0E0F5F
:1000D0000F0F0E0F0F0F0D0F0F0F0D0F0F0F0D0F37
:1000E000080F0D0F000F0D0F070F0E0F070F0E0F4C
:1000F000000F0C0F08070B0F0F0F070F070F0F0E46
:100100000F050F0E080F0A0C0D0F0A0F0E0B0F082C
:100110000F0F090B0807070F0F07060F0F0B0F0F25
:100120000807090F0B070B0F0B0B0F0F0C0B030F1F
:100130000F0F0A0F0F030F0F0F060F0F050F0F0FF3
:100140000F0D0E0F0F050A030F0F0B0F0F0B0F0FE5
:100150000F0306070F0F03030F030F0F0F0F0D0FF2
:100160000F0B0E030F0B0F0B0F07090B0F0F0D07D4
:100170000F0B070F0F070D0E0F0F0D0D0F0F0B0BB2
:100180000F0F0F0F0F0F0A090F070B0D0F0F030FA4
:10019000030A070F0F0B0A0B070F0A0B0B090C0BB7
:1001A0000B0F0F070906030F0F020A0F050E0D03B1
:1001B0000B070B0F0F050B0F050C09030D0F0B0F92
:1001C0000E0F0F0F0D0B0F0F0B090F0F0F0F0E0F51
:1001D0000F0D0E0F0D0D090F0A030F0F0A0B0D0F58
:1001E0000B03050F0F070F0F0F05090E0C0F090A60
:1001F0000A030B0F0A0F0E0F0C0B0B090F0B0B0B47
:100200000F0F0F0F0F0F0F0F0F0E0F0F070C0F0F0A
:1002100003080F0F0700070F0F00020F0F01000E5A
:100220000F03000E0F07000E0F03000C0F01000C50
:100230000F07000C0F0F03080F0F0F090F0F0F0F01
:100240000F070C0F0F070C0F0F070C0F0F070C0FEA
:100250000F070C0F0F070C0F0F070C0F0F070C0FDA
:100260000F00000E0F01000F0F01000F0F03080F0A
:100270000F03080F0F070C0F0F070C0F0F0F0E0FB8
:100280000F0F0F0F0F0F0F0F0F0F070F0F0F030E93
:100290000F0F010C0F0E000E0F04000F0700080FC8
:1002A00007000C0F07000E0F03000C0F0300080FD0
:1002B00003000E0F010C0F0F090F0F0F0F0F0F0F81
:1002C0000F0F0F0F0F0F0F0F0F0F0F0F0F070F0F46
:1002D0000F010F0F07000F0F0100000000000000CA
:1002E0000100000007000F0F0F010F0F0F070F0F86
:1002F0000F0F0F0F0F0F0F0F0F0F0F0F0F0F0F0F0E
:100300000F0F0F0F090F0F0F010C0F0F03000E0F30
:100310000300080F03000C0F07000E0F07000C0F5F
:100320000700080F0F04000F0F0E000E0F0F010C37
:100330000F0F030E0F0F070F0F0F0F0F0F0F0F0FE2
:100340000F0F0E0F0F070C0F0F070C0F0F03080FE7
:100350000F03080F0F01000F0F01000F0F00000E19
:100360000F070C0F0F070C0F0F070C0F0F070C0FC9
:100370000F070C0F0F070C0F0F070C0F0F070C0FB9
:100380000F0F0F0F0F0F0F090F0F03080F07000CB0
:100390000F01000C0F03000C0F07000E0F03000EDF
:1003A0000F01000E0F00020F0700070F03080F0FC9
:1003B000070C0F0F0F0E0F0F0F0F0F0F0F0F0F0F59
:1003C0000F0F0F0F0F0F0F0F0F0F0F0F0F0F0F0F3D
:1003D0000F0F0E0F0F0F080F0F0F000E0000000879
:1003E00000000000000000080F0F000E0F0F080FA4
:1003F0000F0F0E0F0F0F0F0F0F0F0F0F0F0F0F0F0E
:00000001FF
