:100000000F0F0F0F0F0F0F0F0F0F030F0F0F030F18
:100010000F0F0C0C0F0F0C0C0F0F030F0F0F030F14
:100020000F0F0F0F0F0F0F0F030F0F0F030F0F0FF8
:10003000000C0F0F000C0F0F030F0F0F030F0F0F0C
:100040000F0F0F0F0F0F0F070F0F0F070E0F0F0FD1
:100050000D030C0F0E01080F0F00000F0700000E1C
:100060000300000C01000008000000000000000078
:10007000000000000000000000080300000E0F0058
:10008000080F0F030E0F0F0F0F0F0F0F0F0F0F0F94
:100090000F0F0F0F0F0F0F0F0F0F0F0F0F0F0F0F70
:1000A0000F0F0F0F0F0F0F0F0F0F0F0F0F0F0F0F60
:1000B0000F0F0F0F0F0F0F0F0F0F0F0F0F0F0F0F50
:1000C0000F0F0F0F0A0A0A0A0000000000000000CC
:1000D0000000000000000000050100000F0100000A
:1000E0000F000008070000080300000801000408D2
:1000F000000006080000070000080F00000C0F01B8
:10010000000E0F01000F0F030E0F0F070F0F0F0F41
:100110000B0A0A09010000000000000000000000B6
:1001200000000000000F0F0F080F0F0F0C0F0F0F34
:10013000000F0F0F0000000E0000000C0000000870
:10014000010000000B0A0A040F0F0F0F0F0F0F0F13
:100150000505050500000000000000080505000C6D
:100160000F07000E0F03000F0F01080F0F000C0FF9
:1001700007000E0F07000F0F0300050D0300000C12
:100180000300000C0705050D0F0F0F0F0F030C0FD9
:100190000F01080F0F0C010F070E030E070E030EC1
:1001A0000F08010F0F09090F0F0B0D0F0F0F0F0F86
:1001B0000F0A0A0F0F00000F0F020A0F0F070E0F92
:1001C0000F070E0F0F030A0F0F01080F0F090A0F79
:1001D0000F0D0F0F0F0F0F0F0F0F0F0F0F0F0F0F31
:1001E0000F0F0F0F0F0F0E0F0F03090F0F05060F45
:1001F0000F05060F0F03090F0F0F0E0F0F0F0F0F35
:100200000F0F0F0F0F0F0F0B0F0F0F050F0F0F0A11
:100210000F0F07050F0F0F0A0F0C0F050F0C0F0B19
:1002200003030F0F03030F0F0F0C0F0F0F0C0F071C
:100230000F0F0F030F0F0F010F0F0F000F0F07000E
:100240000F0F03000F0F0100070F00080B06000837
:100250000703000C0F03000E0F03000F0F03000F26
:100260000F03000F0F03000F0F07000E0F0F000CFE
:100270000F0F010C0F0F030C0F0F070C0F0F0F0CBC
:100280000F0F0F0F0F0F0A0A0F0F00000F0F0000C4
:100290000F0F00000F0F00000F0F05050F0F0F0FBE
:1002A0000F0F0F0F0F0F0F0F0F0F0F0F0F0F0F0F5E
:1002B0000F0F0F0F0F0F0F07030F0F03030F0F0188
:1002C000000C0700000C0700030F0F00030F0F00C6
:1002D0000F0F0F080F0F0F0C0F0F0F0F0F0F0F0740
:1002E0000F0F0F030F0F0F010F0F0F010F0F0F0154
:1002F0000F0F0F010F0F0F030F0F0F070F0F0F0F30
:100300000F070F0F0F030E0F0F010C0F0F08090F30
:100310000F0809070F010C070F030E070F070F0740
:100320000F0F0F0F0F0F0F0F0F0F0F0F0F0F0F0FDD
:100330000F0F0F0F0F0F0F0F0F0F0F0F0F0F0F0CD0
:100340000F0F07080F0F03030F0F03030F0F07080B
:100350000F0F0F0C0F0F0F0F0F0C0F0F0F0C0F0FB6
:1003600003030F0F03030F0F0F0C0F0F0F0C0F0FD3
:100370000F0F0F0F0F0F0F0F0F0F0B0F0F0F010F9F
:100380000F0F000E0F070C0C0F030E090F070C0CBC
:100390000F0F000E0F0F010F0F0F0B0F0F0F0F0F8F
:1003A0000F0F0F0F0F0F0F0F030F0F0F030F0F0F75
:1003B000000C0F0F000C0F0F030F0F0F030F0F0F89
:1003C0000F0F0F0F0F0F0F0F0F0F0F0F0F0F0F0F3D
:1003D0000F0F0F0F0F0F0F0F0F0F0F0F0F0F0F0F2D
:1003E0000F0F0F0F0F0F0F0F0F0F0F0F0F0F0F0F1D
:1003F0000F0F0F0F0F0F0F0F0F0F0F0F0F0F0F0F0D
:00000001FF
