:1000000000000000000000000000000000010101ED
:1000100003030303020000000000000000000000D2
:1000200000000000000000000000000001050707BC
:100030000B0B0B0707060200000000000000000089
:1000400000000000000000000000020307070F0E80
:100050000E0E0F0F0707060600000000000000004C
:1000600000000000000000000103030607090B0F59
:1000700006030D0D0D0E0F0F0D0000000000000017
:100080000000000000000001030305040D0F0F0B2A
:100090000A070F05070E0B0F0F0D000000000000F0
:1000A0000000000000000100020206070D0F0F0B08
:1000B0000E0F070D0F0F0A080E0E0F0000000000B4
:1000C0000000000000000103030706070D0F0B0FDF
:1000D0000E070D0F0F0B0E0D070F0F0A000000008B
:1000E00000000000000001030307060F0D0F0B0FB7
:1000F000060F0D0F0F0B0E0F05050D0A080000006F
:1001000000000000000001030307060F0F0F0F0798
:100110000E0F0D0F0B0F0E070D0F0F0E0A00000034
:10012000000000000000010303070F0D05090F0781
:10013000070F0F0B0F0F070D0F0F0B0E0E00000018
:100140000000000000000103030F0E060C08080069
:1001500004040E0A0E060E0D0F0F0B0E0E0000000B
:1001600000000000000001010F0F030E0E0E080832
:100170000000040C0C0C0F0F0F0B0B060E040000FC
:1001800000000000000808090F0B0D0F0F0F0F0BE8
:100190000B0301050D0D0D0D0F0B0E02080C0000D9
:1001A000000000080808080D0F020D0F0F0F0F0FB9
:1001B0000F0B0303030F0F0E0B0F060E0C0C0800A2
:1001C00000000808080C0C0C070C0F0F0F0F0F0F86
:1001D0000F0F0F0303030F0E0F060E040408080091
:1001E000000008080C0C0C0E0B0C0F0F0F0F0F0F5C
:1001F0000F0F0F0F0703030C070E0C0C0408080069
:100200000008080C0C0C0C0E030E0F0F0F0F0F0F35
:100210000F0F0F0F0F0707040F0C0C0C080800003E
:100220000008080C0C0C0E0E07050F0F0F0F0F0F18
:100230000F0F0F0F0F0F0D0F0F0C0C080808000009
:1002400000080C0C0C0E0E0F07050E0F0F0F0F0FF2
:100250000F0F0F0F0F0F080F0D0D080808000000FB
:1002600000000C040C0E0E0F0303060F0F0F0F0FF0
:100270000F0F0F0F0F0B060F0909080800000000F1
:1002800000000C0C060E0F0F0F0301050F0F0F0FD0
:100290000F0F0F0F0F010F0B0901010000000000ED
:1002A0000000040C0E0E0F0F0F0B0300040E0F0FB7
:1002B0000F0F0F0E060C0F030301010000000000DA
:1002C0000000040C0A0E0F0F0F0F0B010000040EAC
:1002D0000E0E040C0A0F03030301010000000000CE
:1002E0000000000C0E0A0F0F0F0F0F0B0100000093
:1002F00008040C0A0F0703030301010000000000BB
:10030000000000000E0E0F0F0F0F0F0F0F0B09094B
:100310000D0D0F0F0707030303010100000000008C
:10032000000000000E0E0F0D0D0D0F0F0F0F0F0F21
:100330000F0F0F0F07070303030101000000000068
:1003400000000000000E0F0F0F0E0E0E0F0F0F0F0C
:100350000F0F0F0F0706020203010100000000004B
:100360000000000000040C0F0F0F0F070F0F0F0FFE
:100370000F0F0F0707030303010100000000000037
:1003800000000000000004040E0E0F0F070F0B0FFB
:100390000F0F0D0505030302000000000000000020
:1003A00000000000000000000406060F0F0F0F0BF6
:1003B0000F0F070703030200000000000000000009
:1003C000000000000000000000000406060B0B0FF8
:1003D0000707070300000000000000000000000005
:1003E000000000000000000000000000000000000D
:1003F00000000000000000000000000000000000FD
:00000001FF
