:100000000000070C00030F0F08070F0F08070F0F62
:10001000080700030C0E00010C0C00000C0C000083
:100020000C0C00010807000308070F0F08070F0F4B
:1000300000030F0F00000F0C000000000000000084
:10004000000C0000000C0000000C0003080C000372
:100050000C0F0F0F0C0F0F0F0C0F0F0F0C0F0F0FBC
:10006000000C0000000C0000000C0000000C000060
:100070000000000000000000000000000000000080
:10008000000F0003080F0803080F0C030C0F0E03EA
:100090000C0F0F010C0F0F000C0C0F080C0C0708B5
:1000A0000C0C070C0C0C030F0C0C030F080C010FAD
:1000B000080C000F000C000700000000000000000A
:1000C000000300000C0700010C0700010C0F0001E9
:1000D0000C0E00010C0C00000C0C03080C0C030CA3
:1000E0000C0C030E0C0E070F0C0F0F070C070F0361
:1000F0000C070E010C030C000000000000000000C3
:1001000000000C0000000E0000000F0000000F08AF
:1001100000000F0C00000D0E00000C0F08000C0773
:100120000C000C030C0F0F0F0C0F0F0F0C0F0F0F09
:100130000C0F0F0F00000C0000000000000000007A
:100140000C03010F0C07010F0C07010F0C0F010F1F
:100150000C0E01080C0C01080C0C01080C0C010819
:100160000C0C01080C0E03080C0F0F080C070F00F5
:1001700000070F0000030E00000000000000000058
:1001800000030F0C00070F0E00070F0F080F0F0FD3
:10019000080E030B0C0C01090C0C01080C0C0108D7
:1001A0000C0C01080C0E03080C0F0F080C0F0F00AD
:1001B00000070F0000030E00000000000000000018
:1001C0000C0000010C0000010C0000010C000001FB
:1001D0000C0F08000C0F0E000C0F0F080C0F0F0C6B
:1001E0000C010F0E0C00030F0C00000F0C00000799
:1001F0000C0000030C0000010000000000000000E3
:1002000000030C0000070E0708070F0F080F0F0F61
:100210000C0E070B0C0C03080C0C03080C0C030849
:100220000C0C03080C0E070D080F0F0F08070F0F1B
:1002300000070E0700030C00000000000000000093
:100240000000000F0800010F080C010F0C0C030F39
:100250000C0C03090C0C03000C0C03000C0C030029
:100260000C0E03000C0703010C070F0F08030F0F00
:1002700008010F0F00000F0F000000000000000039
:10028000000F0F0C000F0F0E000F0F0F080F0F0FB6
:100290000C000C030C000C010C000C000C000C00FA
:1002A0000C000C010C000C03080F0F0F000F0F0FB8
:1002B000000F0F0E000F0F0C0000000000000000E8
:1002C0000C0F0F0F0C0F0F0F0C0F0F0F0C0F0F0F4A
:1002D0000C0C03000C0C03000C0C03000C0C0300B2
:1002E0000C0C03000C0E07090C0F0F0F0C0F0F0F57
:1002F00008070E0F00030C070000000000000000BC
:1003000000000F0E00030F0F08070F0F08070F0F55
:100310000C0F08070C0F00010C0E00000C0C000065
:100320000C0C00000C0E00010C0F0003080700036A
:1003300008070003000300030000000000000000A5
:100340000C0F0F0F0C0F0F0F0C0F0F0F0C0F0F0FC9
:100350000C0C00000C0C00000C0C00000C0C00013C
:100360000C0E00030C0F080F08070F0F08070F0FE4
:1003700000030F0F00000F0C000000000000000041
:100380000C0F0F0F0C0F0F0F0C0F0F0F0C0F0F0F89
:100390000C0C03000C0C03000C0C03000C0C0300F1
:1003A0000C0C03000C0C03000C0C00000C0C0000E7
:1003B000000C0000000C0000000000000000000025
:1003C0000C0F0F0F0C0F0F0F0C0F0F0F0C0F0F0F49
:1003D0000C0003000C0003000C0003000C000300E1
:1003E0000C0003000C0003000C0003000C000300D1
:1003F0000C0000000C0000000000000000000000E5
:00000001FF
