:1000000000000F0C00030F0F08070F0F08070F0F5A
:100010000C0F0C070C0F00010C0E00000C0C000064
:100020000C0C03000C0C03010C0F0F03080F0F0343
:10003000080F0F03000F0F03000000000000000076
:100040000C0C00000C0C00000C0C00000C0C000050
:100050000C0F0F0F0C0F0F0F0C0F0F0F0C0F0F0FBC
:100060000C0C00000C0C00000C0C00000C0C000030
:100070000000000000000000000000000000000080
:1000800000030C0000070C0000070C00000F0C0020
:10009000000E0000000C0000000C0000000C00002E
:1000A000000C0000000E00000C0F0F0F0C070F0FCC
:1000B0000C070F0F0C030F0F0000000000000000E2
:1000C0000C0F0F0F0C0F0F0F0C0F0F0F0C0F0F0F4C
:1000D000000C0000000C0000000C0000000C0000F0
:1000E000000C0000000C0000000C0000000C0000E0
:1000F000000C0000000C00000000000000000000E8
:100100000C0F0F0F0C0F0F0F0C0F0F0F080F0F0F0F
:100110000000030F0000070E00000F0C00000F0C82
:100120000000070E0000030F080F0F0F0C0F0F0F3A
:100130000C0F0F0F0C0F0F0F00000000000000004D
:100140000C0F0F0F0C0F0F0F0C0F0F0F080F0F0FCF
:100150000000010F0000030E0000070C00000F0854
:1001600000010F0000030E000C070F0F0C0F0F0F04
:100170000C0F0F0F0C0F0F0F00000000000000000D
:100180000C0F0F0F0C0F0F0F0C0F0F0F0C0F0F0F8B
:100190000C000C000C000C000C000C000C000C00FF
:1001A0000C000C010C000E030C000F0F0800070FD1
:1001B0000800070F0000030F00000000000000000F
:1001C0000C0F0F0F0C0F0F0F0C0F0F0F0C0F0F0F4B
:1001D0000C000C000C000C000C010C000C030C00BB
:1001E0000C070C010C0F0E030C0F070F080E070F66
:1001F000080C030F0008010F0000000000000000C1
:100200000003000F0807010F0C0F010F0C0F030F65
:100210000C0E03090C0C03080C0C03000C0C03005F
:100220000C0C07010C0E07030C0F0F03080F0E0335
:1002300000070E0300030C00000000000000000097
:100240000C0000000C0000000C0000000C0000007E
:100250000C0000000C0F0F0F0C0F0F0F0C0F0F0FE7
:100260000C0F0F0F0C0000000C0000000C00000031
:100270000C0000000C000000000000000000000066
:100280000C010F0F0C070F0F0C070F0F0C0F0F0FA8
:10029000000F0000000E0000000C0000000C000029
:1002A000000E0000000F00000C0F0F0F0C070F0FC7
:1002B0000C070F0F0C030F0F0000000000000000E0
:1002C000000000000000000000060000000F000019
:1002D000000F0000000F0000000F000000060000EB
:1002E000000000000000000000000000000000000E
:1002F00000000000000000000000000000000000FE
:100300000C0E00030C0E00070C0F080F0C070D0F4E
:1003100000030F0F00010F0E00000F0C00010F0C67
:1003200000030F0E00070F0F080F0C0F0C0F08072C
:100330000C0F00030C0E0001000000000000000084
:100340000C0000030C0000070C00000F0C00010F54
:100350000000030F000F0F0E000F0F0C000F0F080F
:10036000000F0F0C0000030E0C00010F0C00000F1B
:100370000C0000070C00000300000000000000005B
:100380000C0F00000C0F08000C0F0C000C0F0E00DF
:100390000C0F0F000C0D0F080C0C0F0C0C0C070EA3
:1003A0000C0C030F0C0C010F0C0C000F0C0C0007B5
:1003B0000C0C00030C0C0001000000000000000009
:1003C000000000000000000000000000000000002D
:1003D000000000000000000000000000000000001D
:1003E000000000000000000000000000000000000D
:1003F00000000000000000000000000000000000FD
:00000001FF
