:10000000000B0F03000300020003000000030000C8
:10001000000300080003080D000A070E0700040E85
:100020000000040E0300040F0F00080F0F0F0F0F46
:100030000F0F0F0F0F0F0F0F0F0F0F0F0F0F0F0FD0
:10004000010003000100030001000300010007009C
:100050000300060003020400070200030F02000869
:100060000F0000000F00000C0F01000F0F0F0F0F0B
:100070000F0F0F0F0F0F0F0F0F0F0F0F0F0F0F0F90
:100080000F0F0F0F0F0F0F0F0F0F0F0F0F0F0F0F80
:100090000F0F0F0F0F0F0F0F0F01000F0F00000CAE
:1000A0000F0000000F020008070200030302040013
:1000B0000300060001000700010003000100030027
:1000C0000F0F0F0F0F0F0F0F0F0F0F0F0F0F0F0F40
:1000D0000F0F0F0F0F0F0F0F0F00080F0300040F6C
:1000E0000000040E0700040E000A070E0003080DAE
:1000F00000030008000300000003000000030002EA
:1001000000040F0F00040F0F00040E0F00000E0F6D
:100110000F010C0F0F030C0F00000C0F00020C0F4F
:1001200000020C0F00020C0F000E0D0F00010E0F4D
:1001300000010F0F010E0F0F000F0F0F080F0F0F11
:100140000F0701000F0701000F0301000F0300005C
:100150000F010C0F0F010E0F0F0100000F0102081D
:100160000F0102080F0102080F0D03080F03040816
:100170000F0704080F0F030C0F0F07000F0F0F00DE
:100180000F0F0F0F0F0F0F000F0F03000F0F0100C6
:100190000F0300000F0107000F0100000F01000016
:1001A0000F01000F0F01080F0F010C010F010000DC
:1001B0000F0302000F0302000F0700000F070100EA
:1001C0000F0F0F0F080F0F0F000E0F0F000C0F0F68
:1001D00000000E0F00070C0F00000C0F00000C0FAA
:1001E00007000C0F0F000C0F0C010C0F00000C0F80
:1001F00000020E0F00020E0F00000F0F00040F0F81
:100200000F08030E07070D0D0B0F0E0D0F0F0F0D2F
:100210000B070C0E050B0B090D0F07070E06060743
:100220000E050F070E0D0F080D090D0F0D070E0E11
:100230000B0B0F0E070A0F0E0F0B070F0F07080F00
:100240000F0F0F0F0F0F0F0F0F0F0F0F0F0F0F0FBE
:100250000F0F0F0F0F000C0F0F00090F0F00020FF1
:100260000F00040F0F00000F0F0F0F0F0F0F0F0FD6
:100270000F0F0F0F0F0F0F0F0F0F0F0F0F0F0F0F8E
:100280000E0F0F0C0C0F0F0C0C0B03030E010303CE
:100290000F000E0C0F010F0C0F0B0F0F0F0F0F0F96
:1002A0000F0F0F0F0F0F0B0F0F0F040E0E070B0D7D
:1002B0000C070B0D080F040E000F0B0F000E0F0F95
:1002C000000C0F0F00080F0F03000F0F03000E0F9D
:1002D00007000C0F0F000C0F0F010C0F0F010C0B80
:1002E0000F010C050F010C0B0F000E0F07000F0F75
:1002F00007080F0F070C0F0D070E0F0A070F070552
:100300000F0F070506090F0A00000F0D00000F0F61
:1003100000080F0F00080F0F000C0F0F010C0F0F3C
:10032000030C0F0F030C0F0F030C0F0F030C0F0F19
:10033000030E0F0F010E0F0F000F0F0F000F0F0F07
:1003400000070E0F080B0D0F0E0D0B0F0F0B0D0FEF
:1003500006070E0F000F0F0F080F0F0F0C0F0F0FD8
:100360000E0F0F0F0F0F0F0F0F0F0F0F0F0F0F0F9E
:100370000F0F0F0F0F0F0F0F0F0F0F0C0F0F0F0C93
:100380000F0F03000E0F03000F0F0F0C0F0F0F0CBA
:100390000F0F0F0F0F0F0F0F0F0F0F0F0F0F0F0F6D
:1003A0000F0F0F0F0F0F0F0F0F0F0F0F0F0F0F0F5D
:1003B0000F0F0F0F0F0F0F0F0F0F0F0F0F0F0F0F4D
:1003C0000F070F0F0F030E0F0F010C0F0F08080F71
:1003D000070C010F0F08080F0F010C0F0F030E0F72
:1003E0000F070F0F0F0F0F0F0F0F0F0F0F0F0F0F25
:1003F0000F0F0F0F0F0F0F0F0F0F0F0F0F0F0F0F0D
:00000001FF
